:100000000C942A000C9434000C9434000C943400AA
:100010000C9434000C9434000C9434000C94340090
:100020000C9434000C9434000C9434000C94340080
:100030000C9434000C9434000C9434000C94340070
:100040000C9434000C9434000C9434000C94340060
:100050000C94340011241FBECFE5D4E0DEBFCDBF29
:100060000E9436000C9461000C94000081E08ABB71
:100070001BBA81E08BBB2FE78AE196E021508040DC
:100080009040E1F700C000002FE78AE196E02150A0
:1000900080409040E1F700C000001BBA2FE78AE1E2
:1000A00096E0215080409040E1F700C000002FE72B
:1000B0008AE196E0215080409040E1F700C00000C6
:0600C000D8CFF894FFCF39
:00000001FF
